{
  "contractName": "MyFavoriteNumber",
  "abi": [
    {
      "constant": true,
      "inputs": [],
      "name": "number",
      "outputs": [
        {
          "name": "",
          "type": "uint256"
        }
      ],
      "payable": false,
      "stateMutability": "view",
      "type": "function"
    },
    {
      "constant": true,
      "inputs": [],
      "name": "price",
      "outputs": [
        {
          "name": "",
          "type": "uint256"
        }
      ],
      "payable": false,
      "stateMutability": "view",
      "type": "function"
    },
    {
      "inputs": [],
      "payable": false,
      "stateMutability": "nonpayable",
      "type": "constructor"
    },
    {
      "anonymous": false,
      "inputs": [
        {
          "indexed": false,
          "name": "_number",
          "type": "uint256"
        }
      ],
      "name": "newNumber",
      "type": "event"
    },
    {
      "constant": false,
      "inputs": [
        {
          "name": "_number",
          "type": "uint256"
        }
      ],
      "name": "setNumber",
      "outputs": [],
      "payable": true,
      "stateMutability": "payable",
      "type": "function"
    },
    {
      "constant": false,
      "inputs": [
        {
          "name": "_address",
          "type": "address"
        }
      ],
      "name": "transfer",
      "outputs": [
        {
          "name": "",
          "type": "bool"
        }
      ],
      "payable": false,
      "stateMutability": "nonpayable",
      "type": "function"
    }
  ],
  "bytecode": "0x6080604052663c6568f12e8000600155600060025534801561002057600080fd5b5060008054600160a060020a031916331790556102b1806100426000396000f3006080604052600436106100615763ffffffff7c01000000000000000000000000000000000000000000000000000000006000350416631a69523081146100665780633fb5c1cb146100a85780638381f58a146100b5578063a035b1fe146100dc575b600080fd5b34801561007257600080fd5b5061009473ffffffffffffffffffffffffffffffffffffffff600435166100f1565b604080519115158252519081900360200190f35b6100b36004356101c4565b005b3480156100c157600080fd5b506100ca610279565b60408051918252519081900360200190f35b3480156100e857600080fd5b506100ca61027f565b6000805473ffffffffffffffffffffffffffffffffffffffff16331461017857604080517f08c379a000000000000000000000000000000000000000000000000000000000815260206004820152600a60248201527f6f6e6c79206f776e657200000000000000000000000000000000000000000000604482015290519081900360640190fd5b60405173ffffffffffffffffffffffffffffffffffffffff831690303180156108fc02916000818181858888f193505050501580156101bb573d6000803e3d6000fd5b50600192915050565b60015434101561023557604080517f08c379a000000000000000000000000000000000000000000000000000000000815260206004820152601060248201527f6e6f74206e6f75676820666f756e647300000000000000000000000000000000604482015290519081900360640190fd5b60028181556001805490910290556040805182815290517f3780149a2e969cb1dde078709d0f96a56086a2a76b46fa5082741167d3262a859181900360200190a150565b60025481565b600154815600a165627a7a72305820c5b20baf16f014fc56c18b0033f9d0c27eb932d32eb5c739c73dd9a5083afe420029",
  "source": "pragma solidity ^0.4.24;\n\ncontract MyFavoriteNumber {\n    \n    event newNumber(uint _number);\n    \n    constructor() public {\n        owner = msg.sender;\n    }\n    \n    modifier onlyOwner() {\n        require(msg.sender == owner, \"only owner\");\n        _;\n    }\n    \n    address owner;\n    uint public price = 0.017 ether;\n    uint public number = 0;\n    \n    function setNumber(uint _number) public payable {\n        require(msg.value >= price, \"not nough founds\");\n        \n        number = _number;\n        price *= 2;\n        emit newNumber(number);\n    }\n    \n    function transfer(address _address) public onlyOwner returns (bool) {\n        _address.transfer(address(this).balance);\n        return true;    \n    }\n    \n}\n",
  "sourcePath": "C:\\Users\\lucas.vieira\\Desktop\\Dapps\\MyFavoriteNumber\\contracts\\MyFavoriteNumber.sol",
  "compiler": {
    "name": "solc",
    "version": "0.4.24+commit.e67f0147.Emscripten.clang"
  },
  "schemaVersion": "2.0.1",
  "updatedAt": "2018-10-09T17:28:14.619Z"
}