{
  "contractName": "MyFavoriteNumber",
  "abi": [
    {
      "constant": true,
      "inputs": [],
      "name": "number",
      "outputs": [
        {
          "name": "",
          "type": "uint256"
        }
      ],
      "payable": false,
      "stateMutability": "view",
      "type": "function"
    },
    {
      "constant": true,
      "inputs": [],
      "name": "price",
      "outputs": [
        {
          "name": "",
          "type": "uint256"
        }
      ],
      "payable": false,
      "stateMutability": "view",
      "type": "function"
    },
    {
      "inputs": [],
      "payable": false,
      "stateMutability": "nonpayable",
      "type": "constructor"
    },
    {
      "anonymous": false,
      "inputs": [
        {
          "indexed": false,
          "name": "_number",
          "type": "uint256"
        }
      ],
      "name": "newNumber",
      "type": "event"
    },
    {
      "constant": false,
      "inputs": [
        {
          "name": "_number",
          "type": "uint256"
        }
      ],
      "name": "setNumber",
      "outputs": [],
      "payable": true,
      "stateMutability": "payable",
      "type": "function"
    },
    {
      "constant": false,
      "inputs": [
        {
          "name": "_address",
          "type": "address"
        }
      ],
      "name": "transfer",
      "outputs": [
        {
          "name": "",
          "type": "bool"
        }
      ],
      "payable": false,
      "stateMutability": "nonpayable",
      "type": "function"
    }
  ],
  "bytecode": "0x6080604052663c6568f12e8000600155600060025534801561002057600080fd5b50336000806101000a81548173ffffffffffffffffffffffffffffffffffffffff021916908373ffffffffffffffffffffffffffffffffffffffff160217905550610299806100706000396000f300608060405260043610610062576000357c0100000000000000000000000000000000000000000000000000000000900463ffffffff1680631a695230146100675780633fb5c1cb146100c25780638381f58a146100e2578063a035b1fe1461010d575b600080fd5b34801561007357600080fd5b506100a8600480360381019080803573ffffffffffffffffffffffffffffffffffffffff169060200190929190505050610138565b604051808215151515815260200191505060405180910390f35b6100e0600480360381019080803590602001909291905050506101fc565b005b3480156100ee57600080fd5b506100f7610261565b6040518082815260200191505060405180910390f35b34801561011957600080fd5b50610122610267565b6040518082815260200191505060405180910390f35b60008060009054906101000a900473ffffffffffffffffffffffffffffffffffffffff1673ffffffffffffffffffffffffffffffffffffffff163373ffffffffffffffffffffffffffffffffffffffff1614151561019557600080fd5b8173ffffffffffffffffffffffffffffffffffffffff166108fc3073ffffffffffffffffffffffffffffffffffffffff16319081150290604051600060405180830381858888f193505050501580156101f2573d6000803e3d6000fd5b5060019050919050565b600154341015151561020d57600080fd5b8060028190555060026001600082825402925050819055507f3780149a2e969cb1dde078709d0f96a56086a2a76b46fa5082741167d3262a856002546040518082815260200191505060405180910390a150565b60025481565b600154815600a165627a7a7230582053771cd1c88fcc28566494038332f8f347921823239c9208fc107f0a5058693c0029",
  "source": "pragma solidity ^0.4.24;\n\ncontract MyFavoriteNumber {\n    \n    event newNumber(uint _number);\n    \n    constructor() public {\n        owner = msg.sender;\n    }\n    \n    modifier onlyOwner() {\n        require(msg.sender == owner);\n        _;\n    }\n    \n    address owner;\n    uint public price = 0.017 ether;\n    uint public number = 0;\n    \n    function setNumber(uint _number) public payable {\n        require(msg.value >= price);\n        \n        number = _number;\n        price *= 2;\n        emit newNumber(number);\n    }\n    \n    function transfer(address _address) public onlyOwner returns (bool) {\n        _address.transfer(address(this).balance);\n        return true;    \n    }\n    \n}",
  "sourcePath": "C:\\Users\\lucas.vieira\\Desktop\\MyFavoriteNumber\\contracts\\MyFavoriteNumber.sol",
  "compiler": {
    "name": "solc",
    "version": "0.4.24+commit.e67f0147.Emscripten.clang"
  },
  "schemaVersion": "2.0.1",
  "updatedAt": "2018-10-05T14:34:01.723Z"
}